:020000041000EA
:10000000002008205D0100101301001015010010F0
:100010001101001011010010110100101101001058
:100020001101001011010010110100101701001042
:100030001101001011010010190100101B01001026
:100040001D0100101D0100101D0100101D010010F8
:100050001D0100101D0100101D0100101D010010E8
:100060001D0100101D0100101D0100101D010010D8
:100070001D0100101D0100101D0100101D010010C8
:100080001D0100101D0100101D0100101D010010B8
:100090001D0100101D0100101D0100101D010010A8
:1000A0001D0100101D0100101D0100101D01001098
:1000B0001D0100101D0100101D0100101D01001088
:1000C0001D0100101D0100101D0100101D01001078
:1000D0001D0100101D0100101D0100101D01001068
:1000E0001D0100101D0100101D0100101D01001058
:1000F0001D0100101D0100101D0100101D01001048
:100100001D0100101D0100101D0100101D01001037
:1001100000BE00BE00BE00BE00BE00BEEFF3058004
:10012000103800BEF2EB88718C790010B0790010A5
:10013000A801001090A31AE7D3DEFFFF42012110AF
:10014000FF010000B48A0000793512AB4FF00000C7
:100150002049086006C881F3088810474FF05040D6
:10016000006810B14FF00000F2E70FA40ECC002998
:1001700002D000F015F8F9E71749184A002000E00E
:1001800001C19142FCD1002080F30A8814498847BC
:10019000144988471449884700BEFDE701C901C2D8
:1001A0009A42FBD3704700BFB079001010010020C5
:1001B0004C130020EC8B00100000082000000820E9
:1001C000EC8B001000100820001008200000000038
:1001D0007047000008ED00E04C130020882200204A
:1001E000A5420010110800109D420010F8B500BF94
:1001F000064B0749C91A891048BF0131491003D07D
:10020000044B0BB101481847704700BF4C13002046
:100210004C1300200000000008B5054B1BB1054938
:100220000548AFF30080BDE80840FFF7E1BF00BF1D
:1002300000000000D4210020BC730010704700BFF4
:10024000704700BF704700BF037C13B1C36893427F
:1002500002D00523C2600374704700BF224BDFED5C
:10026000235A984228BF184607EE900AF8EEE77A1C
:100270009FED1F6AC7EEA56A9FED1E7A66EE867A2D
:10028000C7EE866AF0EE477AE6EEC77AF5EEC07AF8
:10029000F1EE10FA24D4F4EEC77AF1EE10FADFEDA5
:1002A000166A77FE277A87EE875ADFED145AB0EE8A
:1002B000667A9FED136AA5EE257AC7EE067A67EE99
:1002C000867AFCEEE77A17EE902A12040D4B0E495F
:1002D000D3F8983053406FF30F03C1F8983070474C
:1002E0004FF41602F2E700BFFB8F0200C0FE234866
:1002F0000000FA43000034430000164300204B4541
:1003000000409C4600800A4000900A40C369B3FA4E
:1003100083F35B095B42C361704700BF094A1368FE
:10032000C31A002BB8BF5B42092B09DD064B1060D6
:10033000DB6D000A054A83EA00436FF30F03D365C0
:10034000704700BFC421002000800A4000900A408E
:1003500008B502F025F9E0B9012141F2883002F038
:1003600095F8104B5B68032B17D8DFE803F00E0AF3
:100370000602BDE8084000F0F1BDBDE8084000F00D
:10038000CDBDBDE8084000F069BDBDE8084000F003
:10039000F9BC642001F080FEDEE74FF4FA7001F052
:1003A0007BFEFAE71C150020037CDB070FD5C16933
:1003B00069B1C368B0F814C0027C03EA0C0390F87A
:1003C00018C002F0FE02027423FA0CF008477047CE
:1003D000036806491B688B4206D1C369B3FA83F3ED
:1003E0005B095B42C3617047184700BF0D030010F3
:1003F00050F8102C0749126803468A42A0F11000F9
:1004000006D1DA68B2FA82F252095242DA607047D3
:10041000104700BF0D03001030B5114C21F0010151
:10042000104D22F0010223681FFA81FE91B205608F
:10043000A0F804E0C18083B1A446DA88914203D8D1
:1004400007D19A88724504D203F1080C9B68002BEF
:10045000F3D18360CCF8000030BD2060836030BDF4
:1004600024150020D876001070B5044600780D469B
:1004700018B90AE014F8010F38B16422002306F01D
:10048000D3FC0028F6D1002070BD64220023202078
:1004900006F0CAFC0028F6D0287818B909E015F84B
:1004A000010F30B16422002306F0BEFC0028F6D113
:1004B000E9E76422BDE8704000230A2006F0B4BCDE
:1004C00070B504252E4A04461368407E2D4E2E49F1
:1004D00083EA003303F4704382B033600D60136825
:1004E000DB05FCD5536894F824009BB2D4E90A12CA
:1004F0004FF6FF755B1A521AB0B3A3EB034393FB9D
:10050000F2F32B4407EE903AD4ED086AF8EE677ADE
:10051000B1EE046A77EEE67A87EE867A77EE267A8F
:10052000BCEEE77A17EE105AE369C4ED087AAB42E5
:1005300011D80ED2EB1AB3F5806F1CD969460A2286
:10054000284606F0EDFD69466069FFF78DFF00B1B2
:10055000E56102B070BD5B1BB3F5806FEED8B5F5F9
:10056000806FEBD302B070BDC3EB034393FBF2F398
:1005700007EE903AC8E7B5F57C4FDFD2E9E700BF58
:1005800000000A4000100A4000200A402DE9F04710
:100590004FF05044236D82B0D90709D506F070FCA6
:1005A00001464F48C9B200F0A1FA236DDA07F5D42D
:1005B0004C4E3468002C6CD001F060FE002975D1DF
:1005C000494AA2FB00234FEA9319484F484DDFF8F0
:1005D0002C81D4E90123A9EB0303934251D9236869
:1005E0005B68BB4279D104212B68607E414A83EA73
:1005F000003303F47043C8F8003011602B68DB054A
:10060000FCD5D4E90A126B6894F824C09BB24FF66B
:10061000FF705B1A521ABCF1000F57D0A3EB0343D3
:1006200093FBF2F3034407EE903AD4ED086AF8EE38
:10063000677AB1EE046A77EEE67A87EE867A77EE2D
:10064000267ABCEEE77A17EE10AAE369C4ED087AC1
:100650009A4532D313D9AAEB0303B3F5806F02D8BE
:10066000BAF57C4F0BD369460A22504606F058FD76
:1006700069466069FFF7F8FE08B1C4F81CA0C4F829
:100680000890E36832681BB1934202D01C46A0E791
:10069000E260194B1C6834B1236820469B68984778
:1006A000A468002CF8D102B0BDE8F0874FF47A724C
:1006B000002306F03DFE814687E7A3EB0A03B3F56E
:1006C000806FD0D8BAF5806FD9D2CCE7C3EB0343A3
:1006D00093FBF2F307EE903AA7E720469847CEE760
:1006E0002815002018150020D34D6210C1040010F9
:1006F00000000A4000200A402415002000100A4093
:1007000070B52DED068B9FED3A8AB5259FED39AA80
:10071000DFED399A9FED399AF0EE488A384E394C20
:10072000B4EEE88AF1EE10FA38FE887AC7EE287A3D
:10073000B0EE697AA7EE8A7AC7EE097A67EE897A0F
:10074000FCEEE77A17EE901AD6F898302E4A83EA34
:10075000014323400A20C2F8983001F09DFCF7EED7
:10076000007A013D38EE678ADAD19FED288A4FF48E
:10077000967001F091FC5B24DFED1DAA9FED1DAA90
:10078000DFED1D9ADFED1D8AB0EE489A1C4DB5EEE7
:10079000C08AF1EE10FA54BFB0EE487AB0EE497A52
:1007A000C7EE2A7AB0EE697AA7EE8A7AC7EE287A7F
:1007B00067EEA87AFCEEE77A17EE901AD5F8983033
:1007C000114A83EA01436FF30F030A20C2F89830FD
:1007D00001F062FCF7EE007A013C38EE278AD6D1B0
:1007E000BDEC068B4FF49670BDE8704001F054BC30
:1007F0000000344300204B450000164300409C4657
:1008000000800A400000FFFF00900A400000000046
:100810002DE9F04182B003F06DFE4FF47A7001F0E3
:100820003BFC1D2000F0E6F90F21684600F01CFAA1
:10083000DDE90001424B83E803000F21414803F04A
:1008400063FF019B032B77D8DFE803F0726E6A0227
:100850003D4803F0D9FE3D4800F00EFC0222002185
:100860003A4800F063FC3A4806F05AFB042119208C
:1008700000F014FDFF23374C374A2366236D374FB2
:10088000DB4303F00103136506F06EFB1F211A2002
:1008900000F004FD00221A20114600F01DFD002189
:1008A0001A2000F02DFD04210F2000F0F7FC00239A
:1008B00044F620604FF4FA610122C4F88C30C4F889
:1008C0009430C4F89830C4F89C00C4F89010C4F870
:1008D0008C20FFF715FF224803F096FE214EDFF82B
:1008E0009880FFF753FE397A786800F0A9FC031E60
:1008F00018BF01237A7A9A420BD000280CBF3546E4
:1009000045463C687B7229462046FFF7ADFD00282E
:10091000F9D000F081F90A20002101F051FBE0E755
:10092000114803F071FE96E7104803F06DFE92E760
:100930000F4803F069FE8EE70E4803F065FE8AE774
:100940001C150020E07300101C740010BC21002056
:100950005103001000800A4000900A40D814002083
:10096000C0730010E47500101074001004740010BF
:10097000F87300102C740010DC730010F0B5002523
:100980001026132485B0424800F0A4F81223CDE9C4
:10099000016511223F4900943F4800F047FB42F6B1
:1009A00034323E481146FFF737FD4FF6FF7642F6E8
:1009B0006E523A493A4B3B4FCB610D744E610D7606
:1009C0000F6039481146FFF727FD3749374A384B42
:1009D000384CCB610D74384B4E610D7637480F6043
:1009E00011686061E16003F114001A211460236052
:1009F000002240F6FF736560C4E90A232061A56008
:100A000084F82450217606F0AFFA267E1F21304666
:100A1000657600F043FC2A462946304600F05CFC2F
:100A20002946304600F06CFC0420254A667E136897
:100A3000244D254983EA063303F470432B60086094
:100A40001368DB05FCD5536894F824009BB2D4E905
:100A50000A124FF6FF755B1A521AA0B1A3EB0343BB
:100A600093FBF2F32B4407EE903A0021F8EE677AFD
:100A7000164A1748E361084BC4ED087A10605360CA
:100A8000118105B0F0BDC3EB034393FBF2F3EAE73A
:100A90002815002000000840BC210020142200205E
:100AA0005D020010EC760010F421002018150020E3
:100AB0001D030010E8140020007700103C740010A3
:100AC00000000A4000100A4000200A40D81400200C
:100AD00060740010002280F8582080F8592080F8B7
:100AE0005A2080F85B20027002747047F8B50378D2
:100AF0000446013B0E46052B0AD8DFE803F05054AC
:100B00006165031C0622E1608368013B836002701B
:100B1000552E11BF0023237C0133DBB22374237CC9
:100B2000042B00D0F8BD01210022304B21701B683E
:100B300022746361F8BDC368456943EA0123C36059
:100B40008368013B836065B1294F6368EA889A42F4
:100B500010D22B685B68BB423DD1AD686561002D4A
:100B6000F3D1636802336360A368002B3BD1012398
:100B70002370CDE76268AB889342F2D862689342F3
:100B800009D86368EA889A4205D32B6861682846C9
:100B9000E2681B689847AD68002DEBD1E1E70223BE
:100BA00061600370B4E745F25552436843EA01239C
:100BB00043604368934214BF032300230370A7E7F5
:100BC0000423A1600370A3E70522836843EA01239D
:100BD000836002709CE72846984763699D68656159
:100BE000002DB2D1BDE70523237091E72415002025
:100BF0004102001010B5074C206000F091FB4FF04F
:100C00000102236842EC44304FF0000242EC4030D5
:100C100010BD00BF8815002010B501F02FFBA9B151
:100C20004FF47A72002306F083FB0B4A1368C31A51
:100C3000B3F5FA7F09D30949094C0B78246883F08E
:100C400001030B7043EC4040106010BD054AA2FB4D
:100C500000208009E9E700BF9015002079220020DC
:100C600088150020D34D62100F2915D8DFE801F058
:100C700012080808080808080808080808080C10DE
:100C80000123017043607047032301704360704784
:100C90000223F6E70023F4E70423F2E7094A4FF0C2
:100CA0000103116843EC4010074B1A6893699B06D7
:100CB000FCD41060936913F00803FBD143EC40109F
:100CC000704700BF8C15002084150020F8B5154E24
:100CD0004FF00102336842EC40300478FCB1054625
:100CE000114F3B689A699106FCD49A699206FCD42C
:100CF0001C606420002101F063F915F8014F002CFD
:100D0000EFD13A68946914F00804FBD14FF4C8702D
:100D1000002101F055F9336844EC4030F8BD024F32
:100D2000EFE700BF8C1500208415002010B5084B9C
:100D30001A68946914F00804FBD14FF4C8700021BC
:100D400001F03EF9034B1B6844EC403010BD00BF7E
:100D5000841500208C150020044B1B689869C0F393
:100D6000001080F0010000F00100704784150020A1
:100D7000034B1A689369DB06FCD41068C0B2704755
:100D8000841500202DE9F843304F314EDFF8C8803C
:100D90004FF0504501F070FB002003F0ADFB821CCA
:100DA000044606D06422002306F03EF8E0B2FFF7C6
:100DB00075FFFFF7D1FF60B92B6DDB07EAD506F0B1
:100DC0005FF8C0B203F0DEFB0A20002101F0F8F862
:100DD000DEE7FFF7CDFF3A782AB90F280DD80123B7
:100DE00032703B70E8E70A28327829D07D2A09D88A
:100DF000511C317008F80200DEE76422002306F07F
:100E000013F8D9E70A2328F802300024DFF84890C5
:100E10000023642219F8010B06F006F80134337838
:100E2000E4B2A342F4D8002364220A2005F0FCFFB8
:100E30004146084803F068FC00233B703370BBE771
:100E400028F80200002AE0D1EDE700BF7B22002055
:100E50007A22002070740010941500202DE9F843C8
:100E60004FF05044DFF8AC80DFF8AC90254E264FB1
:100E700001F002FBFFF770FF20BB236DDB07F7D506
:100E800098F800305BBB05F0FBFFC5B22846FFF7C2
:100E900005FF32680A2D02F101033360BD542CD0E6
:100EA0007E2BE5D9002518491848FD5403F02CFC89
:100EB0000123356088F8003001F0DEFAFFF74CFFBF
:100EC0000028DAD0FFF754FF6422002305F0ACFFBE
:100ED000236DDA07CCD598F80030002BD3D099F8E1
:100EE0000000FFF7DBFE0022336899F80010581C61
:100EF0003060F95488F80020C5E70025024904480D
:100F0000D3E700BF141600201816002088740010C4
:100F100074740010A01200201C15002010B54FF0B2
:100F2000504401F0A9FA002003F0E6FA811C10D029
:100F30006422002305F078FF236DDA07F1D505F070
:100F40009FFFC0B203F01EFB0A20002101F038F819
:100F5000E7E7236DDB07E4D5F1E700BF2DE9F041BA
:100F60002A4803F051FB2A4803F04EFB294EDFF8D4
:100F7000B880294D294F0DE07E2B36D90022FA5436
:100F80003946274803F0C0FB00232B700A200021BC
:100F900001F016F801F070FA002003F0ADFA831C9E
:100FA0000ED0C4B2204603F0EDFA0D2C337815D0E4
:100FB0000A2C13D07E2B03D85A1C327008F8034039
:100FC000FFF7CAFE0028E1D0FFF7D2FE0A282B78EF
:100FD000D2D10022FA54002BD6D0D1E7002208F853
:100FE000032033B900233370EAE75A1C2A70F854FF
:100FF000CCE741460B4803F087FB4046FFF766FE0F
:101000000A20FFF74BFEFFF791FEEBE7AC740010F0
:10101000C87400107C2200207D22002018170020B8
:1010200014750010F874001098160020F8B50446E6
:101030000F469DF820C09DF818601846227184F86C
:1010400005C09DF81C500121276000F027F93046AB
:10105000012100F023F90121284600F01FF9207931
:1010600000F05EF94FF00102237942EC443042EC8B
:1010700040302046F8BD00BF2DE9F041044682B063
:101080002949006805F088FF00270A2108226379B2
:101090003E465B0003F00E0343F040038DF804303E
:1010A0008DF8051023798DF8062047EC4030032297
:1010B000206801A906F058F94FF00108227948ECA0
:1010C00040208DF80570FF2763798DF8067003FACC
:1010D00008F303F00E0343F040038DF8043046ECB0
:1010E00040200322206801A906F03EF9227948EC4D
:1010F000402063798DF8058003FA08F303F00E03AE
:1011000043F040038DF806708DF8043046EC402023
:101110000322206801A906F027F9237948EC403022
:1011200002B0BDE8F08100BF40420F000023072954
:101130002DE9F04394BF4FF000084FF0010883B051
:1011400016468DF802301A4643790D465B0003F0CF
:101150000E0343F041038DF80030044603798DF807
:10116000018042EC4030032301AA6946006806F082
:10117000E7F80127227947EC402005F007039F405C
:101180009DF8063006BB23EA07038DF80630637925
:101190004FF000095B0003F00E0343F040038DF8AD
:1011A00005808DF8043049EC40200322206801A915
:1011B00006F0DAF84FF00108237948EC4030022EAF
:1011C00005D003B0BDE8F0833B43DBB2DDE700228E
:1011D000072D8CBF0D250C258DF8022062798DF826
:1011E0000150520002F00E0242F041028DF8002040
:1011F00049EC4030032301AA6946206806F0A0F8B4
:10120000227948EC402063798DF805505B0003F0AB
:101210000E0343F040038DF804309DF806303B4345
:101220008DF8063049EC40200322206801A906F021
:101230009BF8237948EC403003B0BDE8F08300BF51
:101240000023072930B50C468CBF1321122183B02F
:101250001A468DF80230437905465B0003F00E0311
:1012600043F041038DF800308DF80110037942EC12
:101270004030032301AA6946006806F061F84FF088
:1012800001022B7942EC40309DF8060004F007047F
:10129000204100F0010003B030BD00BF10B44FF496
:1012A00080740C4B53F8202003EB8003C00082F0C5
:1012B000400200F1804003F5805C02F0C00200F5BE
:1012C000203003F54053CCF8002041601C605DF8ED
:1012D000044B70470480034010B4084CC90041EA35
:1012E000820154F8202004EB8003514003F5805321
:1012F00001F00C015DF8044B196070470480034055
:10130000064B402203EB800319B103F500531A602A
:10131000704703F540531A60704700BF04800340D4
:1013200030B44FF0000343EC440043EC400005258B
:101330004FF480740B4BC20053F8201003EB800075
:1013400081F0400102F1804303F5203301F0C00237
:1013500000F5805100F540500A605D60046030BCCB
:10136000704700BF048003400FB400B583B0049CF5
:10137000074803F049F93CB105A92046019102F064
:1013800073FF044803F040F9012002F085FF00BF1D
:10139000307500104075001070B58646EFF310856B
:1013A00072B6124CD4E8CF6F0120002EFAD1C4E8F7
:1013B000460F002EF6D1BFF35F8F4FF0010CC80827
:1013C00001F007030CFA03F31EF800C01CEA030641
:1013D00008D14CEA030C0EF800C0C4E88F6F85F307
:1013E000108870BD1046FFF7BFFF00BF47190020EF
:1013F000F8B5EFF3108772B61C4ED6E8CF5F012424
:10140000002DFAD1C6E8454F002DF6D1BFF35F8F0E
:101410009A421BD8012502E00132934222D3D4081C
:1014200010F804E002F0070C05FA0CFC1EEA0C0FA1
:10143000F2D14EEA0C0E00F804E010460023C6E894
:101440008F3F87F31088984207DBF8BD0023C6E87A
:101450008F3F87F310884FF0FF300029F5D00698B2
:10146000FFF782FF4FF0FF30E8E700BF4719002089
:10147000044A1078431CDBB2182B28BF10231370CA
:10148000704700BFA112002010B5054C82B0014684
:101490001F23182200940348FFF7AAFF02B010BDD3
:1014A00044750010581D00204FF0E022936843F06F
:1014B00000539360704700BF0021044B03F12002EA
:1014C000C3E88F1F01339342FAD170473C190020C3
:1014D0004FF0E0234FF08032C3F80024C3F8042417
:1014E000C3F80824C3F80C24C3F81024C3F8142448
:1014F000C3F81824C3F81C24C3F82024C3F82424F8
:10150000C3F82824C3F82C24C3F83024704700BF44
:10151000012300F01F029340400941B1800000F117
:10152000604000F56140C0F8803103607047024AB6
:10153000203042F82030704700E100E00123064AE5
:10154000410952F8212000F01F0003FA00F010407A
:10155000003818BF0120704700E100E00122430974
:10156000034900F01F008240403341F823207047B8
:1015700000E100E0054A10309268054B52F8200067
:10158000C01A2F288CBF00200120704700ED00E01A
:10159000A4120020F8B50D46EFF3108772B6124E74
:1015A000D6E8CF2F0123002AFAD1C6E8423F002A0D
:1015B000F6D1BFF35F8F0D4B00F110049B680C4A0E
:1015C00053F82430934203D0994201D001F084F8BB
:1015D000064B9B6843F82450BFF35F8F0023C6E897
:1015E0008F3F87F31088F8BD4519002000ED00E01B
:1015F0001D0100102DE9F04F81468B46164683B041
:10160000EFF3108372B6DFF8D0A10093DAE8CF1FB2
:1016100001230029FAD1CAE8413F0029F6D1BFF3DE
:101620005F8F664B93F90040002CC0F2A080644DA0
:1016300004EB440705EB870898F8061009F1100938
:101640001970604BBF009B6853F829006300411B71
:101650002F292FD95C49884240F0A4801C445B4B61
:1016600002372F44043BDB1BC3F34A036FEAC34337
:101670004FF421416FEAD34325F8241005EB84048D
:1016800063804BF60153A380FF2348F00100E6710D
:10169000C4F808B0A3714B4B9B6843F82900BFF313
:1016A0005F8F0023CAE88F3F009B83F3108803B04D
:1016B000BDE8F08F20F0010E9EF80710B1422ED841
:1016C0004FF42143EB53414BB91C2944043B0437ED
:1016D0005B1A2F44AEF10401C91BC1F34A043C4913
:1016E000C3F34A030B432143A8F804103949A8F86F
:1016F00002304AF6AA2073465B1B5B415843000D3B
:1017000088F8076088F80600C8F808B048F00100BB
:10171000CEF80010BFE7D179B1422ED996469EF996
:1017200006C00CEB4C02BCF1000F05EB8202F2DAB2
:101730004BF601510EF10402A8F10407BF1AC7F3DA
:101740004A076FEAC7476FEAD7478EF8064003EBB0
:101750000408204C05EB8803AEF8047045F82840D7
:10176000998083F806C0DE71C3F808B093E700F0F3
:10177000B3FF124B93F9004059E7724632F8041F49
:10178000490514D44915023102EB410101916FF072
:101790000701C91B019F491B3944C1F34A0141F4A8
:1017A0006041C9E7019300F097FF019B56E701F5FF
:1017B000FF1101F5FF511F31E4E700BF8122002036
:1017C000A412002000ED00E01D010010D412002042
:1017D00000E0FFFF0148804745190020F0B5EFF316
:1017E0000585EDB2EFF3108C72B62649D1E8CF2F04
:1017F0000123002AFAD1C1E8423F002AF6D1BFF303
:101800005F8F214E40F0010EB4684AF6AA2354F8C7
:1018100025701E4A0446A41A644163431B0D774594
:101820005BB21BD092F906409C421CD092F9124048
:101830009C4223D092F91E409C4221D092F92A402A
:101840009C4208BF03240FD0114A0024157813705E
:101850008571C1E88F4F8CF31088F0BDB2680D4CD4
:1018600042F82540F0E7002404EB440402EB840234
:10187000FF2494714BF601549480E5E70124F3E7CB
:101880000224F1E74519002000ED00E0A412002039
:10189000812200201D01001010B5074C82B00146C6
:1018A0000523002200940548FFF7A2FD0028A8BFE9
:1018B000C0F1330002B010BD607500108522002019
:1018C000014B0B44036070473C19002070B5104C6D
:1018D000104DAC420ED2FF26236863B1FFF7C8FD5E
:1018E00001462046FFF7ECFFA680BFF35F8F083468
:1018F000AC42F1D370BDFFF7BBFD01462046FFF7B8
:10190000DFFF2671BFF35F8F0834AC42E4D370BDB4
:101910003C1300204C13002010B50446FFF7A8FD2F
:1019200001462046FFF7CCFFFF232371BFF35F8FF3
:1019300010BD00BF10B504460120FFF7A5FD034B05
:1019400003442360BFF35F8F10BD00BF3C1900202C
:10195000024B0B440360BFF35F8F70473C190020BC
:101960000D4B1A68EFF3108172B6D2E8CFCF012089
:10197000BCF1000FF9D1C2E84C0FBCF1000FF4D15B
:10198000BFF35F8F00221B68C3E88F2F81F310889D
:1019900040BF0020002170475C22002000000000B2
:1019A0002DE9F04F2DED028B85B0EFF30583DBB20F
:1019B000103B9A0818BF01224FF0010103F0030BFE
:1019C00018BFAF4DAF4B08BFAF4D0BEB820253F8C2
:1019D000226001FA0BF205F541539FEDA78B0192AE
:1019E0005A602FE0B3881C0440F19380B379002B38
:1019F00040F0DD80B6F90820002AC0F21E8173692C
:101A000002EB420203EBC203D3E90247B7F1FF3F07
:101A100008BFB4F1FF3F0ED005EB8B01AB6A0A693A
:101A2000D21AE31A934205D301232A6A03FA0BF36D
:101A3000134200D10C61284600F018FCA042B941C5
:101A4000C0F2FB80B6F90830019A002B0093EA63DC
:101A5000C8DBD6F8148003EB4309284608EBC90716
:101A6000D7E9024A00F002FCA04271EB0A01B9DB9F
:101A7000BAF1000FC0F2C380D7E90431834A934220
:101A800000F0ED807A88B6F9080092B242EA004090
:101A9000984702460B4652EA030100F0B080002B43
:101AA00080F2D180B4EB020E6AEB030A38F93930C8
:101AB000C7E902EA002B95DB716903EB430201EBF6
:101AC000C202D2E90270BE457AEB000C4FEA430233
:101AD00088DBB4462CF8083F06E003EB430001EB3B
:101AE000C0005A00D0E90270BE451A447AEB0000EB
:101AF00001EBC20404DB31F93230A446002BECDAEE
:101B000028F83930009BACF80030B3881C043FF54E
:101B10006DAF3369EFF3108272B6D3E8CF0F0121B6
:101B20000028FAD1C3E8401F0028F6D1BFF35F8F29
:101B30004FF6FF74B0880023316900B2B480C1E869
:101B40008F3F82F310889842FFF650AF0746A946B0
:101B5000746906F1080807EB470E04EBCE03D3E9DE
:101B60000250B6F90830C446002B13DBB24600978A
:101B700004E034F936309446002B09DB03EB4306CE
:101B800004EBC602D2E90271BD4270EB0101F0DA4A
:101B90005646009FACF8007034F93E7024F83E3091
:101BA000002FD8DAB3794D46002B3FF423AF002342
:101BB000B371B6F9083006F10808581C3DD01A4632
:101BC000776903E08046591C3FF416AF03EB4301ED
:101BD00007EBC100B0F802C01C461CF4004F9E4643
:101BE00037F93130EED0944280ED028B05D0A8F861
:101BF0000030328927F8312034817246E3E738F823
:101C0000393033813369EFF3108272B6D3E8CF0FE6
:101C100001210028FAD1C3E8401F0028F6D1BFF304
:101C20005F8F7388316928F83930009B73800023F7
:101C3000C1E88F3F82F31088D4E640BF05B0BDEC09
:101C4000028BBDE8F08F2846CDE9022300F00EFBA1
:101C5000029A039B10EB020E43EB010A26E70846AB
:101C60000B69029198470028C9D00299D1E9002355
:101C700011E700BFAFF30080FFFFFFFFFFFFFFFF93
:101C800000800B403422002000000B40A1190010FE
:101C90002DE9F84F364C25692DB1BDE8F84F0A21E2
:101CA0003448FFF70DBEDFF8E4800321404600F022
:101CB000CBFA0326C4F80C80FFF7DAFB4FF0504C48
:101CC0002D4B267003442361DCF800300F21637034
:101CD000636961801D834FF00405A3F878504FF0CD
:101CE0000505A3F890504FF00605A3F8A8504FF053
:101CF00007050E214FF6FF7208274FF00A0EA3F8D2
:101D0000C0504FF001094FF00C0C4FF0020B4FF098
:101D1000090A0D204FF00B05A3F868111749A2809E
:101D2000A3F808E1A160A3F848B0A3F8F0A0A3F8D5
:101D30002051A3F838C1A3F85001A3F83090A3F8BC
:101D40006060A3F8D8701A800D4B3046C8F8207038
:101D50000C49DC60FFF71EFC49463046FFF7D8FB14
:101D6000094B0A211F640348BDE8F84FFFF7A8BDDF
:101D7000EC1200205C2200203C190020FFFF100024
:101D800034220020A119001000200B4000000B405D
:101D900000487047EC120020F8B59DF8205004462A
:101DA00017461E4635B900F069FA874266EB010115
:101DB00000295CDB2169EFF3108372B6D1E8CF0F05
:101DC00001220028FAD1C1E8402F0028F6D1BFF344
:101DD0005F8FB4F90220656902EB4201002A4FEAE5
:101DE000C10C206905EBC10139DB35F80CE0A4F822
:101DF00002E04FF0000EC0E88FEF83F310884888B0
:101E0000069B0130C0F30E00012838BF01200B6192
:101E1000079B48804B61C1E9027640EA0240236992
:101E2000EFF3108172B6D3E8CF7F0126002FFAD1ED
:101E3000C3E8476F002FF6D1BFF35F8FA38825F863
:101E40000C30A2802369C3E88FEF81F31088012250
:101E5000E368217803F501538A405A60F8BD0022F7
:101E6000C0E88F2F83F310884FF0FF30F8BD28466D
:101E7000F8BD00BF0146F0B50069EFF3108772B6F8
:101E8000D0E8CF5F0124002DFAD1C0E8454F002DE6
:101E9000F6D1BFF35F8FB1F902E04C690EEB4E0C47
:101EA000BEF1000F4FEACC05086904EBCC0C3CDB1B
:101EB000665B4E800026C0E88F6F87F31088BCF801
:101EC0000200CCE902230130C0F30E00012838BF24
:101ED0000120059BACF80200CCF81030069B40EACC
:101EE0000E40CCF814300B69EFF3108272B6D3E8D1
:101EF000CFCF0127BCF1000FF9D1C3E84C7FBCF173
:101F0000000FF4D1BFF35F8F8B886353A1F804E017
:101F10000B69C3E88F6F82F310880122CB680978C0
:101F200003F501538A405A60F0BD0023C0E88F3F9B
:101F300087F310884FF0FF30F0BD00BF03464089A3
:101F4000B0EB214F37DD58690A1402EB420210B59D
:101F500000EBC2001C69EFF3108C72B6D4E8CFEF2F
:101F60000122BEF1000FF9D1C4E84E2FBEF1000FDF
:101F7000F4D1BFF35F8F428889B292B28A4207D010
:101F800000221B69C3E88F2F8CF31088002010BD3E
:101F900042F4004242800121002218699971C0E890
:101FA0008F2F8CF310881C78DA68084602F50153ED
:101FB000A140596010BD0020704700BF40787047B5
:101FC0002DE9F04182B004460E4600F057F94FF07B
:101FD000FF326FF00043241846EB0106A24273EB78
:101FE00006013CBF14461E46A51F46F1FF37AC4212
:101FF00076EB07033CBF00252F4600F03FF9281A77
:1020000067EB010C01287CF1000C06DA2046314612
:1020100002B0BDE8F04100F069B900F02FF9854247
:1020200067EB010100290ADB0021174B2A460093C8
:1020300016483B460191FFF71DFF0130E6D04FF0F7
:10204000000C134A1349536A9F4204D8906AA8426D
:10205000DCD29F42DAD10B68EFF3108072B6D3E87E
:10206000CF8F5FF0010EB8F1000FF8D1C3E848EF51
:10207000B8F1000FF3D1BFF35F8F0B68C3E88FCFC8
:1020800080F3108820BFDEE761190010EC120020F9
:1020900000000B405C2200202DE9F04182B0064692
:1020A00000F0ECF84FF47A7304464FF0FF306FF015
:1020B0000042E6FB0341A04272EB01033ABF044633
:1020C00015460D46A61F45F1FF37B44275EB0703D1
:1020D0003CBF0026374600F0D1F8301A67EB01010B
:1020E000012871F1000106DA2046294602B0BDE858
:1020F000F04100F0FBB800F0C1F8864267EB010147
:1021000000290ADB0021174B3246009316483B4654
:102110000191FFF7AFFE0130E6D04FF0000C134AFB
:102120001349536A9F4204D8906AB042DCD29F425E
:10213000DAD10B68EFF3108072B6D3E8CF8F5FF07F
:10214000010EB8F1000FF8D1C3E848EFB8F1000F65
:10215000F3D1BFF35F8F0B68C3E88FCF80F3108894
:1021600020BFDEE761190010EC12002000000B40D8
:102170005C2200202DE9F04306460D4683B0EFF3C4
:102180000584E4B23CB12D4B5A6AAA421CD200200D
:1021900003B0BDE8F0832A4FD7F80C9097F8008081
:1021A000484600F063F808F1040859F828301B1A73
:1021B000301A65EB0101984271F1000110DB20BF7C
:1021C0001E4B5A6AAA42E2D314BF012400249B6A20
:1021D000B34234BF204644F0010003B0BDE8F083B1
:1021E00000F04CF8864265EB0101002914DB154B29
:1021F0003846CDE9003432462B46FFF73BFE011E40
:102200000ADD0E4B5A6AAA4216D39B6AB34211D317
:102210000B48FFF793FEB6E7084B5C6AAC42B6D3B7
:10222000641B18BF01249B6AB34234BF204644F0AC
:102230000100ADE7AA42EBD120BFE9E700000B4067
:10224000EC1200206119001010B4054B054C064A31
:10225000A04214BF1846581C5DF8044BFFF79CB809
:102260005C1D002000800B407C7500100346416A15
:102270000A46986A596A8A42FAD17047034B596AEA
:102280000A46986A596A9142FAD1704700000B4099
:1022900030B4154A536A9C46946A536A6345FAD12E
:1022A000021959414FF0000528BF01250E4B5B6A0A
:1022B000B5B15A1C08BF1A4608D04FF0FF310A4684
:1022C0000948436A8B42FCD38B4207D1064902E09E
:1022D000486A984202D1886A9042F9D330BC70476C
:1022E0009942EDD8F0E700BF00000B40074A536A5F
:1022F0009942FCD8994207D1044B02E05A6A9142B4
:1023000002D19A6A9042F9D8704700BF00000B4092
:1023100000EB400C4FEA8C0C0CF1804C0CF5803C2F
:10232000F0B51646DCF80420051FB2F5803F38BF33
:102330004FF48032EDB238BFCCF80420012D2AD9F9
:102340004FF40067254C0CF54052176054F82020DC
:10235000B2B9DCF80020012D82EA461202F0E00258
:102360000CF5805632602AD94FF4006144F82030D1
:102370004FF480330CF500521160CCF80430F0BDFE
:102380006769B7FBF2FE0EF1010E0EEB4E0EBEF1C9
:10239000030EFCD2DDE70129D2D103240CF5405213
:1023A0001460DCF80820D207FBD5DCF800200B4CC9
:1023B00082EA461202F0E0020CF5805632600122F9
:1023C000DCF800504D4005F00305356002FA01F1DC
:1023D000DCF808200A42FBD0C6E700BF601D0020E1
:1023E000014B53F820007047601D002070B4039D1E
:1023F00004682D0345EA03451B4B002CB3FBF1F3A6
:10240000B2FBF3F61FDB194A194B904214BF4FF48D
:1024100080424FF40042174C1A6003F580531A6053
:10242000A36832EA0303FBD1212200F540530433B1
:10243000016086601A600268002AFCDA0822C56022
:102440001A6070BC7047036803F03F038B42DAD117
:102450008368C3F30B03B342D5D1C36803F4EE23FF
:10246000AB42D0D1EDE700BF001BB70000800540B4
:102470000020024000000240024A034B12685A60EA
:10248000704700BFCC21002000800D4030B44FF0D9
:102490008045174B174A184CDA61184A03F5405328
:1024A0001D6094604FF0E06249B1A3F580531A605B
:1024B00040B930BC4FF00042114B1A6070471A60AF
:1024C0000028F6D04FF47A7303FB00F0B0F1807F60
:1024D0002ABF6FF07F43034618464FF08042094CF5
:1024E00003492360064B486030BC1A60704700BF48
:1024F00000800D402131B76AF3FFFF0100A00140C9
:1025000000A00D40CC21002030B44FF080441C4B83
:102510001C60E0B11B4CA3F54053DC611A4C40F049
:10252000010044401C62596298624FF080454FF0B0
:10253000E061134B1548164C1D60846019604AB960
:1025400030BC4FF00042A3F580531A607047114B26
:10255000D861EAE74FF47A7303FB02F2B2F1807FAD
:102560002ABF6FF07F4313461A464FF080410A4C52
:1025700008482360094B426030BC1960704700BFB7
:1025800000B00D40D3C007B02D3FF84F00A0014070
:10259000F3FFFF0100800D40CC21002000A00D4082
:1025A000134B9B680BB900207047002300B5DB8AF2
:1025B00087B0002242E800F2520254BF10210421E9
:1025C00045F24730984740220346052101A8984725
:1025D00005280BD1019B402B08D1029800F4FE4046
:1025E000B0FA80F0400907B05DF804FB0020FAE77C
:1025F00000800D40012300EB4000800000F180408E
:1026000000F5841041600360704700BF002370B57F
:10261000DB8A04460D46002242E800F2520254BF13
:102620001021042144F25220984786462B46224628
:10263000F446BDE870400A214FF48170604700BF46
:102640000023DB8A002242E800F2520201D410216A
:1026500018470421184700BF08B503460846191E4D
:1026600002DB1AB140F03000FFF7D0FF40F020004D
:10267000FAE700BF034AD2F82838002BFBD0BFF39B
:102680005F8F704700000E400021044B044ABFF3E7
:102690005F8F43F8041B9342F9D170470C080E403A
:1026A0002C080E4010B44FF48D704FF42A64064A83
:1026B000064B07491460D06019605368002BFCDAA0
:1026C0005DF8044B704700BF0080044000A0044048
:1026D00000B0FA00704700BF08B50148FEF744FE9D
:1026E000A075001038B5054C054DAC4204D254F825
:1026F000043B9847AC42FAD338BD00BF707300105A
:10270000B073001038B5054C054DAC4204D254F8F6
:10271000043B9847AC42FAD338BD00BF9C7300100D
:10272000B073001010B40748074C084B084A094919
:1027300004601A608B6832EA0303FBD15DF8044B36
:10274000704700BF002002407F3BEFEF00300240A7
:10275000F6FFF30300000240044BDB6CB3F5004FBF
:1027600003D14FF48022024BDA647047000011500D
:10277000002011504FF0E022044BD2F8881D0B438B
:10278000C2F8883D10EE3004704700BF03033000EC
:102790006FF06041044B054A19609368DB4333F0E6
:1027A0006043FAD1704700BF003002400000024091
:1027B00010B545F25320FFF743FFBDE81040034634
:1027C0000420184710B545F25320FFF739FFBDE844
:1027D0001040034601201847FEF76EBE10B5054BAA
:1027E000054C4FF488721846A16804F0E9FCA0601B
:1027F00010BD00BF0000002000ED00E0002370B518
:102800002B4C82B0C4F88430FFF74CFF0122294BD7
:10281000DA63636C012BFCD10321264A244B11633C
:102820009C6B012CFCD10226052521460523224A5A
:1028300022480096FFF7DAFD21462B46204A214820
:102840000095FFF7D3FD0022042031461E4BFFF711
:102850005FFD2146284600221C4BFFF759FD002250
:10286000082011461A4BFFF753FD0022092011469C
:10287000174BFFF74DFD002206201146134BFFF7C3
:1028800047FD0022114B07201146FFF741FD0420B0
:10289000FFF7A6FD00240F4BA3FB0035AD0CE0B203
:1028A00029460134FFF7A6FE062CF8D102B070BD10
:1028B0000000014000300140002F68590000054031
:1028C000008C864700800540001BB70080D1F008CF
:1028D000006CDC0283DE1B4386B003B451FC0804A9
:1028E000CDE9020151FC0904CDE9040151EC0A04CF
:1028F000CDE9060103BCF047BDE800504EEC00C432
:10290000BDE800504EEC01C4BDE800504EEC02C4DE
:1029100000BD000000B5FFF7DFFF02E010FE30F45D
:10292000F8D441EC100443EC112400EE010410EE45
:10293000010480EE200451EC1004704700B5FFF74D
:10294000CBFF02E010FE30F4F8D441EC100443EC6D
:10295000112400EE010410EE210480EE200451EC5D
:102960003004704700B5FFF7B7FF02E010FE30F407
:10297000F8D410B541EC100443EC112451EC0404DC
:1029800053EC0524A0FB024C5FF0000EE0FB03CEED
:10299000E1FB02CE4CEC20440024E1FB03E444ECD8
:1029A00030E480EE200451EC5004BDE81040704744
:1029B00000B5FFF791FF02E010FE30F4F8D441ECCF
:1029C000100443EC112451EC2104A0FB01126FEA26
:1029D000820252FB100052FB12F252FB1000A0EBDD
:1029E000D07C53EC04245CFB13F153EC1524A1FBC5
:1029F000022001FB030053EC4424A2EB000050FB37
:102A00001CF24FEA111312EB017043EBE27140EA42
:102A1000515020EA915020F0070053EC7524A0FBA0
:102A2000023C53EC752400FB03CC01FB02CC53ECBD
:102A30000424ACEB824C40EA5C70A0F1010041EC54
:102A4000400480EE200451EC7004704700B5FFF79D
:102A500043FF02E010FE30F4F8D440EC700400EEC6
:102A6000010410EE210480EE200451EC3004704784
:102A700000B5FFF731FF02E010FE30F4F8D440EC6F
:102A8000600400EE010410EE210480EE200451ECFD
:102A90003004704700B5FFF71FFF02E010FE30F46E
:102AA000F8D441EC800400EE010410EE010480EE45
:102AB000400410EE1304704700B5FFF70DFF02E06D
:102AC00010FE30F4F8D441EC800400EE010410EE66
:102AD000010480EE400410EE3304704700B5FFF7A8
:102AE000FBFE02E010FE30F4F8D441EC100443EC9D
:102AF000112400EE010410EE3004C0F300707047A2
:102B000000B5FFF7E9FE02E010FE30F4F8D443EC24
:102B1000102441EC110400EE010410EE30F48CBFDF
:102B200001200020704700BF00B5FFF7D5FE02E08E
:102B300010FE30F4F8D443EC102441EC110400EE04
:102B4000010410EE30F42CBF01200020704700BFBC
:102B500000B5FFF7C1FE02E010FE30F4F8D441ECFE
:102B6000100443EC112400EE010410EE30F42CBFED
:102B700001200020704700BF00B5FFF7ADFE02E066
:102B800010FE30F4F8D441EC100443EC112400EEB4
:102B9000010410EE30F48CBF01200020704700BF0C
:102BA000704700BF2DE9F04F83B09946DDE90DABCA
:102BB0000F9B884611469A07074616D1DA453AD246
:102BC0000C460D46ABEB0A060E4422464B464146E8
:102BD00020200134B847B442F7D12946BAF1000F9A
:102BE00008D1204603B0BDE8F08F0C46BAF1000FC3
:102BF00010D00E4655460C9B2E449A440191721BF0
:102C00004B46013D41461AF8010D3446B847002DA8
:102C1000F5D101990F9B9B07E3D5651AAB45E0D928
:102C200022464B46414620200135B8475D4504F118
:102C30000104F5D3D5E70C46BAF1000FD9D1D0E79E
:102C40002DE9F04F0F9FDDF8248017F0020F0A9C4A
:102C50009DF82CA00E9DDDE90C9644D1F5BBB44245
:102C600041D207F0010B04F1FF3C4FF0300EC44499
:102C700004E00134A6420CF801EF01D9202CF8D170
:102C8000BBF1000F00F08880A5422CD904F1FF3C75
:102C90004FF0300EC44404E00134AC420CF801EFB4
:102CA00021D0202CF8D117F0100F0ED017F4806F20
:102CB00054D1A64263D0A54261D0B9F1100F50D0D3
:102CC000B9F1020F56D0202C29D12024CDE90B5781
:102CD000CDE90984BDE8F04FFFF764BF17F0010BA1
:102CE00034D1B442BFD317F0100F1ED017F4806F49
:102CF000E3D1002CDDD1B9F1100F63D0B9F1020F8F
:102D000077D0302488F800400124BAF1000F11D1A7
:102D10007E0748D52B2608F804600134D6E72646FE
:102D200001344FF0300C08F806C0202CCDD0BAF199
:102D3000000FEDD02D2608F804600134CDE90B57C3
:102D4000CDE90984BDE8F04FFFF72CBFBAF1000FC1
:102D500030D0B44205F1FF3585D395E7B9F1100FB6
:102D6000B3D1BE063BD5202CAFD0582608F804605E
:102D70000134A8E7202CA8D02646013407E0661EBF
:102D8000B9D0B9F1100F36D0B9F1020FC9D14FF057
:102D9000620C08F806C096E717F0100FC5D017F4BC
:102DA000806F86D089E73E0790D5202608F804601A
:102DB00001348BE717F00C0F00D0013DB442FFF453
:102DC00052AF61E7BC0612D4782488F80040302462
:102DD00088F801400224BAF1000F99D0AAE7202C0C
:102DE0003FF473AF782608F8046001346BE7582489
:102DF000EBE76224E9E717F0200FA4F1020C04D0FE
:102E00004FF0580E08F80CE08BE74FF0780E08F8FA
:102E10000CE086E700B9704701F0B4BB10B1D1E90E
:102E200000311847704700BF2DE9F04F97B09DED76
:102E3000207BDDE9225B0746884651EC170B249C7A
:102E400099460C920B4602468DED047B0794FFF7E2
:102E500049FE002840F0F481DDE904014FF0FF3223
:102E60006FF48013FFF750FE002840F01B81DDE96E
:102E700004014FF0FF32AC4BFFF782FE002840F018
:102E8000EE80DDE90401A4A3D3E90023FFF778FE77
:102E9000002840F0D380DDE90401A1A3D3E9002399
:102EA000FFF732FE002840F0C980DDE9040100226E
:102EB0000023FFF729FE002840F0E88023460D900C
:102EC00013F4806F08BF062530212B460EAAA5F10A
:102ED000200605E0013BB34202F8011B00F093819C
:102EE000092BF7D81E46ED1ADDE90401FFF7D6FDE0
:102EF0008E4B044603EBC60393ED007B8DED087B00
:102F0000FFF7A8FD02460B46DDE90401FFF71AFDB5
:102F1000DDE90823FFF72AFD02460B46CDE90A2327
:102F2000FFF7CEFD8246FFF7A7FD02460B46DDE91F
:102F30000A01FFF707FD02460B46CDE90A230022EE
:102F40007B4BFFF71DFE002800F0FE800AF1010A0E
:102F50005046FFF791FD02460B46DDE90801FFF7F9
:102F6000E7FD10B14FF0000A0134002E00F0FD80A3
:102F7000681E0EABDFF8CCC118440FE0ACFB0A2191
:102F8000C90801EB8102AAEB42023032BAF1090F03
:102F900000F8012F40F21C818A461D46202D05F1C4
:102FA000010306F1FF36E9D12025691E0EAB614809
:102FB000194410E080FB0462C3EBA20303EB83021D
:102FC000A4EB420404F1300201351C4601F8012F44
:102FD000002B00F0EB80202D4FEAE473EAD1079B31
:102FE00003F00303012B18D1BBF1000F15D00D9B8B
:102FF000002B00F00A810BF1FF3BBBF1200F0CD935
:103000006B1E0EA930220B4405E001355D4503F827
:10301000012F80F0D180202DF7D1079B0EACCDE998
:1030200002B341464B4638460C9A01950094FFF78F
:10303000B9FD8246504617B0BDE8F08F079B9DED65
:10304000047BCDE923B341464B4638460C9A8DEDBF
:10305000207B229517B0BDE8F04F00F045B961071D
:1030600023464CBF042303234146219338464B4655
:10307000079A48BF304CCDE922B258BF2F4C0C9A6A
:10308000209417B0BDE8F04FFFF78CBDDDE90423B5
:1030900000200021FFF756FC0123CDE904010D9328
:1030A00023460DE723469C0740F0AA80BBF1040F9E
:1030B00040F2A6800C9B1D461C1F04EB0B0A2A46FF
:1030C0004B46414620200135B847AA45F7D1554621
:1030D0001B4C261F14F8010D2A464B464146B847A3
:1030E000B44205F10105F5D1079B0AF1040A9807DE
:1030F000A0D50C9CAAEB04039B459BD952464B469A
:10310000414620200AF1010AB847AAEB04035B45B7
:10311000F4D38FE7AFF300800000000065CDCD4110
:103120000000000065CDCDC1FFFFEF7F7877001074
:103130000000E03F67666666F4750010FC750010DD
:1031400008760010CDCCCCCC0022DDE90A01634B1F
:10315000FFF7DAFC00287FF408AFBAF1000F6AD15C
:103160000AF1010A002E7FF403AF2046FFF772FC3C
:1031700002460B46DDE90401FFF7E4FB02460B467D
:10318000CDE904230022554BFFF7BEFC00287FF455
:103190000CAFDDE904010022504BFFF7F1FC0028E1
:1031A0007FF403AF013424F00104FEE6079B03F033
:1031B0000303012B00F08280202D3FF42EAF0D9BE6
:1031C0007BB32D220DEB050383F83820013524E76E
:1031D000202B3FF4E9AE0EAA15441E44302204E031
:1031E000202B05F8012F3FF4DFAE9E4203F10103CF
:1031F000F6D12E220DEB060383F83820751CD4E699
:10320000DDF830A063E720256EE6079B13F00C0F76
:1032100050D00BF1FF3BAB453FF6F2AE202D3FF413
:10322000FCAE079B5A0701D52B22CBE71B077FF586
:10323000F4AE2022C6E71AF0010F3FF496AE8FE7F6
:10324000A60734D1BBF1030F31D90C9B1D46DC1E00
:1032500004EB0B0A2A464B46414620200135B8476D
:103260005545F7D155461E4CE61E14F8010D2A4669
:103270004B464146B847A64205F10105F5D1079BEB
:103280000AF1030A9D077FF5D5AE0C9CAAEB040357
:103290009B457FF6CFAE52464B46414620200AF171
:1032A000010AB847AAEB04039B45F4D8C2E6DDF84F
:1032B00030A0D7E7AB453FF6A3AEAEE6BBF1000FBB
:1032C0003FF47AAF0D9B002B9FD00BF1FF3B5D4588
:1032D000FFF496AE202D7FF474AF9EE60000E03F31
:1032E00003760010000000002DE9F04F9FB02A9EE9
:1032F000DDE92845074693460891099322462B4667
:10330000204629460E96DDE92BA6FFF7EBFB0028A9
:1033100040F0BE80204629464FF0FF32784BFFF741
:103320002FFC002840F0B480204629464FF0FF32A1
:103330006FF48013FFF7E8FB002840F0A9802046D7
:10334000294600220023FFF7DFFB002840F0D5814B
:10335000CDE90A45DDE90A239046994606F4006264
:1033600016F480630F92139340F0A18058EA09038A
:1033700040F0CA80002A40F0E38106230E9316F045
:103380000202109240F0D4815346042B38BF04232C
:103390000C920422043B12920F93204629460022ED
:1033A0000023FFF7B1FB002840F0F3819DED0A7B7D
:1033B0000F9B5A4603930E9B8DED007B029326F4E0
:1033C000006304933846099B0899FFF72DFD0246D8
:1033D00016F0200F099B08990CBF6520452002F1CB
:1033E0000108B8470C9A129B16AC5D1E82EAE27384
:1033F000A3EBE273D10F002622469946DFF804C101
:1034000001E0202E10D0CE46ACFB0930C00800EB06
:103410008003A9EB43033033BEF1090F814606F167
:10342000010602F8013BECD80523002006930A238D
:1034300005950094099D089C4246CDE90330CDE9ED
:1034400001612B4621463846FFF7FAFB109A804669
:10345000D2B1A0EB0B06B24516D90BEB06022B46F8
:10346000214620200136B847B245F6D80BF1FF338C
:103470005344CBF10102A3EB08034244924538BF09
:10348000002308F10108984440461FB0BDE8F08FC2
:103490005A463846CDE92845CDE92BA60E9C099B16
:1034A00008992A941FB0BDE8F04FFFF7BDBC58EA59
:1034B00009032BD1002A3FF462AF00230C930E9B2B
:1034C0000C9A934200F3B9814FF000082046294638
:1034D00000220023FFF718FB002840F013819DED28
:1034E0000A7B26F4006646F480668DED287B5A46FA
:1034F0003846CDE92A8A099B08992C96D2E700BF65
:10350000FFFFEF7FCDCCCCCC06230E93C9F30A503E
:10351000A0F2FF30FFF79EFAC1A3D3E90023FFF723
:1035200025FAC1A3D3E90023FFF7F8F9C9F313097A
:10353000CDE90C0149F07F5140460022B24B41F4E5
:103540004011FFF7FFF9A4A3D3E90023FFF70EFA18
:1035500002460B46DDE90C01FFF7E0F9FFF79EFAA2
:103560000C90FFF777FA9EA3D3E9002380468946A3
:10357000FFF7FCF90022A54BFFF7D0F9FFF78EFA11
:10358000034649464046129397A3D3E90023FFF729
:10359000EDF9804612988946FFF75CFA94A3D3E9C7
:1035A0000023FFF7E3F902460B4640464946FFF782
:1035B000C9F902460B4680468946FFF7D7F94246CD
:1035C0004B46CDE9100140464946FFF7A7F90022D6
:1035D000CDE91401DDE910018D4BFFF7EDF9002273
:1035E0008C4BFFF79BF902460B46DDE91001FFF714
:1035F000E3F90022884BFFF791F902460B46DDE91B
:103600001001FFF7D9F942464B4680468946002013
:103610004FF08041FFF796F902460B464046494677
:10362000FFF77CF902460B46DDE91401FFF7C4F908
:1036300000227A4BFFF772F9129B002203F2FF3C43
:103640004FEA0C53FFF792F980468946DDE90A01FB
:1036500042464B46FFF758FA50B10C9B4046013B9F
:1036600049460C9300226B4BFFF7A6F9804689462A
:103670000C9A43466332C62A06F00202109249466B
:103680000F9A2CD8002A5ED0042212920B433FF4EA
:1036900016AFDDE90A0158A3D3E90023FFF75CFA6E
:1036A00048B1DDE90A0156A3D3E90023FFF72CFA5C
:1036B00000287FF404AF0E9B002B50D0139A002AF1
:1036C0007DD0013B0E93129B9A4505D9109B002B90
:1036D00000F0AE800223109300230F9344E022BB3E
:1036E000BAF1050F4FD906F00203002B49D105238B
:1036F0001293AAF105030F933AE005F100430A94EF
:103700000B9327E626F4006646F4806638462C962E
:10371000DDE90A67344607F100455A46CDE92A8AB1
:10372000CDE92845099B0899BCE605221292ADE730
:1037300000230222CDE90F3204220C9312922CE6D0
:103740004FF00508C2E6BAF1040F1FD9109B002BF9
:1037500078D104231293AAF104030F9304E0129B7F
:103760009A4531D80E9B0F930C9B002B3FF415AE5E
:10377000DDE90A0142464B46FFF71EF9CDE90A0191
:103780000BE60223109305231293F1E7042312930F
:10379000EAE7DDE90A45A0460F9B05F100490393DE
:1037A0000E9B5A46029326F4006304933846CDE9F3
:1037B0000089099B0899FFF737FB024608E6129B30
:1037C0009A4544D80F92CFE7109B8BB30E9B0F9373
:1037D00002231093C8E700BF61436F63A787D23FFE
:1037E00071A379094F930A401655B5BBB16B0240DE
:1037F000EF39FAFE422EE63F2D431CEBE2361A3F2C
:103800000000000080842E410000F83F0000E03FEF
:1038100000002C4000002440000018400000F03F51
:10382000FB799F501344D33FB3C8608B288AC63FAF
:10383000129BAAEB03030F9396E7A3EB020808F190
:10384000FF3843E604231293022310938CE7109B66
:10385000002BEDD002230F92109385E72DE9F04F56
:103860009BB0249C954D0A94954CB1F1000A18BF69
:10387000834625601878934C914608BFA346099368
:10388000002800F093824FF000080AE042464B46C1
:10389000514608F10108D847099B1878002800F024
:1038A000CE80099B252803F101030993EED11C4624
:1038B0000023224612F8010BA0F1200110290AD89A
:1038C000DFE801F04009093C09090909090909383B
:1038D000093409093000A0F130010929099440F2A6
:1038E0008A802A2800F0F08000252E2800F096809B
:1038F0000026A0F1680112292DD8DFE811F0490156
:103900002C0043012C0038012C002C002C002C0032
:103910002C002C002C0027002C002C002C002C004C
:103920002C002700144643F00103C2E7144643F07D
:103930000203BEE7144643F00403BAE7144643F01B
:103940001003B6E7144643F00803B2E70999487834
:1039500043F480730132672809927ED8242840F20C
:10396000C180A0F12502422A00F2BC80DFE812F0FB
:103970005001BA00BA00BA00BA00BA00BA00BA00E0
:10398000BA00BA00BA00BA00BA00BA00BA00BA0067
:10399000BA00BA00BA00BA00BA00BA00BA00BA0057
:1039A000BA00BA00BA00BA00BA00BA00BA00BA0047
:1039B000190137011901BA00BA00BA00BA00BA00F9
:1039C000BA00BA00BA00BA00BA00BA00BA00BA0027
:1039D000BA00BA00BA00BC01BA00BA00BA00BA0014
:1039E000BA00BA00BA00BA00BA00BC015801BC0162
:1039F000190137011901002500E0013205EB8505A9
:103A000000EB45051078303DA0F130010929F4D9CB
:103A10002E28099202F101027FF46AAF099943F45A
:103A2000806348781146A0F13006092E40F22181CA
:103A30002A2800F02F8109920026013259E74446D6
:103A4000C14501D809F1FF384B4642465146002096
:103A5000D84720461BB0BDE8F08FA0F16902D2B272
:103A60000F2A3FD8012149F241079140394040F0E7
:103A7000F3800A2A3DD0072A34D10A9D55F8042B39
:103A8000002A00F0138143F0210012AB1F460B9374
:103A900003E0202900F014811A4602F00F042346A7
:103AA000092C94BF303337330F2A07F8013B01F15B
:103AB00001014FEA1213ECD802E100BF5D3800109B
:103AC000C8210020A12B00100A99099851F8045B25
:103AD0004078002DCDE90921BCBF43F002036D42BF
:103AE000013202E742464B46514608F10108D847E9
:103AF000D2E60A99002E51F8047B18BF3246387876
:103B000008BF4FF0FF32002800F07B83BC18A446AA
:103B10003A4604E012F8014F002C00F03F81944532
:103B2000F8D16446E41B5A0540F12281B44228BF13
:103B3000344613F0020300F088820223CDE90A51D3
:103B400042461D46464408E04B465146D84717F8C2
:103B5000010F08F1010810B142464645F4D12B4649
:103B60000B990A9D002B40F041810A9194E6099936
:103B700048786C287FF4ECAE0A46887843F44073AA
:103B80000332E8E6099943F4007348780132E2E62B
:103B900009994878682800F0038143F080030132D6
:103BA000D9E6672800F0D980472800F0DC80452856
:103BB00000F0DB80CDE903530A9B0296073323F024
:103BC00007031C464246F4E802674B4651465846F6
:103BD000CDE900670A94FFF787FB80465CE646283C
:103BE00008BF43F02003CDE903530A9B0296073335
:103BF00023F007031C464246F4E802674B46514651
:103C00005846CDE900670A94FFF70EF9804643E66F
:103C100042464B465146252008F10108D8473BE66D
:103C20000A9A990702F1040408F1010640F1C680DE
:103C300010784B4642465146D847012D88BFA844CC
:103C400040F2BD8132464B46514620200136D847CE
:103C50004645F7D10A941FE66F2800F0818040F2B4
:103C60004882782800F090810A2723F01003BC4690
:103C700041E0002606EB860600EB4600A0F1300688
:103C800011F8010FA0F13002092AF3D90A4609916F
:103C900001322EE6DDE9092151F8046B90780232F9
:103CA00009920A91013226EAE67622E623F0100014
:103CB00013F4806240F021003FF4E7AE12AB0B93A7
:103CC0000B9B069000930823102005930023424687
:103CD000CDE9023001914B46514658460496FEF715
:103CE000AFFF0A958046D7E5582862D0622840F099
:103CF0008F800227BC4613F4806000F0DD8023F043
:103D00000D0313F4007240F081810A990F1D13F422
:103D1000807140F037825C060A9A40F13B8112784C
:103D2000002A40F04E8123F01003002800F0498162
:103D3000114612AA0B92CDE90553CDE903C60191B4
:103D40000B9B4246009300235146029358464B4634
:103D5000FEF776FF0A9780469EE543F4006329E765
:103D60000827BC46C7E743F4006343F0200321E77C
:103D700013F0020300F08E8102230A951E460D46C1
:103D800042464B465146D84717F8010F08F1010843
:103D90000028F5D1294633460A9DE3E6D41BC2E646
:103DA0000A46887843F0C0030332D4E504468046CF
:103DB00046E6102743F02003BC469CE7012D40F265
:103DC000F880464608F1FF372F4432464B465146AD
:103DD00020200136D847BE42F7D10A9B32461878D8
:103DE00051464B46D847A8440A9455E54646A54255
:103DF0007FF6BBAEA844A8EB04080C4632464B46FF
:103E0000514620200136D8474645F7D12146ACE639
:103E100013F4806200F0BB804FF4806223F0110C39
:103E20001CF400770A9B4AD11CF4807003F104044F
:103E300040F034811CF0400F40F0A3801CF0800F54
:103E400000F0D381B3F9001081EAE177A7EBE177C5
:103E5000BFB2CB0F002900F056813A4612A90F4697
:103E6000DFF8D8E30B910A930C9501E020280FD0DE
:103E70001546AEFB0213DB0803EB8301A2EB410105
:103E80003031092D1A4600F1010007F8011BEDD869
:103E90000A9B0C9DCDE9055CCDE9010304960B9BC3
:103EA000424600930A235146039358464B46FEF779
:103EB000C7FE0A948046EFE423F00C0321E70733A2
:103EC00023F00703194608465B6850F8081BDF0F0C
:103ED0000A9051EA030062D1002A40F09F81134604
:103EE000114612AACDE90C7500201546CDE90E68E1
:103EF000DFF848E30B9201E020282DD05A1842F158
:103F00000002AEFB027828F0030707EB9807D21BEC
:103F10001E469B1A61F100070C464FF0CC3101FBA5
:103F200003F10EFB0711A3FB0E731944052307F0E1
:103F30000108A8FB03389B180A2E03F130034FEA4F
:103F4000570774F1000405F8013B00F1010047EA4E
:103F5000C1734FEA5101CFD2DDE90C75DDE90E687E
:103F60000B9B424600930A23CDE9055CCDE901078E
:103F7000049603934B4651465846FEF761FE804631
:103F80008AE419780F4664E71027BC46B3E623F0AD
:103F9000100C45E71C064CBF12881268C0E60A46A2
:103FA000191E01DB13469CE75242134661EB4101A7
:103FB00097E713465146187842464B46D847B046D5
:103FC00048E613F0200F14BF4120612012ACA64632
:103FD0000B940A93A0F10A040C9502E0202912D058
:103FE0002A46B2FBFCF50CFB1520C3B2092803F1ED
:103FF00030008ABF1B19C3B2DBB262450EF8013B29
:1040000001F10101EAD20A9B0C9D94E60A9A07325B
:1040100022F00702516852F8084B8E460A9254EA81
:10402000010276D123F01003002872D0002211463D
:1040300012AA0B92CDE905530B9B42460093002335
:10404000CDE903C60191029394E7A54298BF0134DC
:104050007FF674AD4FF48063CDE90A7505EB080275
:104060001F460D46141B42464B465146202008F180
:104070000108D847A045F6D13B460A9F2946387823
:104080000B9D6C1C00283FF470AD002B3FF475AE07
:10409000002353E5A542DFD801346EE61968CB0F43
:1040A000002900F0A88081EAE172A2EBE17212A976
:1040B0000846DFF888E10B910A930C9501E0202F68
:1040C0000FD01546AEFB0213DB0803EB8301A2EB16
:1040D00041013031092D1A4607F1010700F8011B93
:1040E000EDD80A9B0C9DCDE9055CCDE901730496E2
:1040F000D5E6692823F0100C40F08C8013F4806220
:104100003FF48EAE88E6002A3FF4A8AE12AA0B92C6
:10411000C0E613F0200F14BF41226122002012A933
:104120000A3ACDE90E68CDE90C35CDF844B0064623
:104130008846754693460B91CDF840C003E0202E8B
:1041400017D004460D4629463A460023204603F080
:10415000EFF8D2B2092A02F1300388BF02EB0B0359
:10416000BC42DBB275F1000508F8013B06F101061F
:10417000E5D23146DDE90C35DDE910CBDDF83C80D8
:104180000E9E57E70A99096851B923F0100338B118
:1041900012A90B91CDE90553CDE903C60192CFE5F4
:1041A00013F0200F14BF4120612012ACA6460B94DF
:1041B0000A93A0F10A040C9502E0202A12D02946A5
:1041C000B1FBFCF50CFB1510C3B2092803F130005C
:1041D0008ABF1B19C3B2DBB261450EF8013B02F185
:1041E0000102EAD20A9B0C9DD4E7196881EAE177C3
:1041F000A7EBE1772DE6002A3FF459AF12AA0B9204
:1042000071E713F480640DD013F0020412D0044659
:104210004646ECE50A276346BC466CE512AB002037
:104220000B939DE613F002037FF4E0AD002D7FF4C5
:1042300013AF9AE4002D7FF40DAF96E4CDCCCCCC37
:1042400070B594461E4605460C4684B04FF0FF32CA
:10425000634602A900960348CDE90254FFF7FEFA2F
:1042600004B070BD1D2E001010B5094B84B01C6841
:104270004CB1034600914FF0FF3203A90548A04717
:10428000012004B010BD00F0BFF9204604B010BDFD
:10429000C8210020152E001000BEFDE708B5FFF76D
:1042A000FBFF00BF38B5064C064DFEF71BFAAC42CB
:1042B00004D254F8043B9847AC42FAD338BD00BF4F
:1042C000B0730010BC73001003680846114618470D
:1042D0002DE9F0411546427D07468846002A46D022
:1042E000002D1DDD0B780A2B23D0012D4FF0000C83
:1042F00018D04646012416F8012F21460A2A04F157
:10430000010422D0A542F6D165450BDC08EB05037C
:1043100013F8013CA3F10D03B3FA83F35B093B757A
:10432000BDE8F0813B68A5EB0C0108EB0C00984759
:10433000ECE7037D002BD8D1036802210F48984792
:10434000012DE3D04FF0010CD3E716F8013C0D2B03
:10435000D8D08C4508EB0C00A1EB0C0101DA3B68CE
:104360009847022105483B689847A446CAE7294672
:1043700040463B68BDE8F041184700BFC8770010D1
:104380000B682DE9F041802B0D46064605D05A1CDE
:104390002B442A601E71BDE8F0810F4B1C68A4B14C
:1043A0000E4F01F1040801E0246974B12368002B69
:1043B000FAD03B680BB1A342F6D1204641462A68A9
:1043C000FFF786FF2469002CF0D1002301222B4443
:1043D0002A601E71BDE8F081B01D0020B81D0020CC
:1043E0002DE9F04782B00D4691461C460646FDF782
:1043F00045FF4FF0FF3C6FF000472E4A821841F115
:104400000003944577EB03013CBF62463B462A48D4
:1044100002F0A2FF6B1C804640D00CB3274F284B04
:104420001C68B4B1B9F1000F1CD1DFF89C9001E019
:10443000246974B12368002BFAD0D9F800300BB18D
:104440009C42F5D120462A463146B8472469002CC3
:10445000F0D1B8F1000F26D1284602B0BDE8F087B0
:10446000184FDCE74FF00A0ADFF85C9002E024699D
:10447000002CEED02368002BF9D0D9F800300BB116
:10448000A342F4D12A4631462046B84701222046AD
:104490000DF107018DF807A0B847E8E7304602F0B4
:1044A00005FF0546B9E7044802F046FF284602B07A
:1044B000BDE8F08740420F0044130020D1420010B5
:1044C000B01D0020C9420010B81D0020084A136822
:1044D00023B90AE003F110021B6933B18342F9D119
:1044E00029B9186910601961704701B110607047EF
:1044F000B01D002000F024BB2DE9F04182B006463B
:10450000FDF7BCFE4FF0FF326FF00043361841F16B
:104510000007B24273EB07013CBF16461F46DFF8A7
:104520006080154DD8F8004014B912E0246984B1B8
:104530002B680BB19C42F9D1A368002BF6D0012166
:1045400001A898470028F1DD9DF8040002B0BDE8FD
:10455000F0810A4B5A6A974209D89B6AB34204D346
:104560006FF0010002B0BDE8F0819742F8D1012060
:104570000021FDF78DFED5E7B81D002000000B409F
:10458000B01D0020F0B583B006468DF80700FDF79A
:1045900075FE4FF0FF356FF00044174A821841F165
:1045A0000003954274EB03013CBF23462A4613489F
:1045B00002F0D2FE124B07461C689CB1114D01E07F
:1045C00024697CB12368002BFAD02B680BB19C4284
:1045D000F6D1204601220DF10701FFF779FE24698B
:1045E000002CEFD117B9304603B0F0BD034802F0FC
:1045F000A3FE304603B0F0BD40420F00441300203C
:10460000B01D0020B81D002038B5044602F04EFE53
:10461000012305461A4620462946FFF7E1FE084BCE
:104620001C682CB163682BB198472469002CF9D120
:10463000284638BD2469002CF4D1284638BD00BF77
:10464000B01D00202DE9F041A2B004460D46FDF753
:1046500015FE4FF0FF376FF00046264ADFF8A480C2
:10466000821841F10003974276EB03013CBF3A46C2
:104670003346214802F070FE00272B4622460646AC
:1046800001A91E480197FFF7DBFD019B0546D8F8FD
:104690000040C3B1002C2BD0194F01E0246974B144
:1046A0002368002BFAD03B680BB1A342F6D1204619
:1046B000019A02A9FFF70CFE2469002CF0D1002317
:1046C000D8F8004001932CB1636843B1984724693E
:1046D000002CF9D12EB9284622B0BDE8F08124691A
:1046E000F1E7054802F028FE284622B0BDE8F08137
:1046F0000194EFE740420F00441300208143001073
:10470000B81D0020B01D00200FB400B583B004A96F
:1047100051F8040B0191FFF795FF03B05DF804EB2E
:1047200004B07047704700BF0022014B1A707047F9
:10473000822200204B79FF2B0BD1887948B9CB79A5
:10474000012B07D1082A05D9034B8A7809201A7052
:1047500070470020704700BF822200200120704770
:10476000012901D00120704708B5104B91881B78B2
:10477000994201D0002008BD5378012B08D0022BAC
:10478000F8D1002164220846FDF7BEFE012008BDD5
:104790005188CB0548BF480AC1F3402258BF4FF0AB
:1047A000FF3001F07F01FDF757FF00BF822200209C
:1047B0000048704794780010012907D15378012BE5
:1047C00002D19388072B03D0002070470120704747
:1047D0001146A623014A01F039BA00BFEC77001058
:1047E0000346012201481A70704700BFCC770010C1
:1047F00008B50B68B3F5966F00D008BD00224FF0E6
:10480000FF301146FDF728FF024A034B1060196084
:10481000704700BF501D0020541D0020184B70B57C
:104820001A68002A28D0EFF3108172B6D2E8CF4F71
:104830000120002CFAD1C2E8440F002CF6D1BFF3BE
:104840005F8F00220F4C186859602270C0E88F2FCC
:1048500081F31088002400250B4E3078FCF76EFEA3
:1048600020B9002400252046294670BD3078FCF789
:1048700075FE2046294670BD4FF47A740025EBE79B
:10488000EC2100208422002083220020014B187894
:10489000FCF764BE8322002038B5044600200D4694
:1048A00001F004FBA8B3002001F016FB88B3FDF76C
:1048B000E5FC4FF0FF3E6FF0004C174A821841F1C3
:1048C000000396457CEB03013CBF724663461348E8
:1048D00002F042FDE8B1002001F0E8FA58B90021E9
:1048E0004FF0FF3000F00AFD6FF002040B4802F0B9
:1048F00023FD204638BD002001F0EEFA0028EED05E
:1049000021462A46002001F0F1FA04460028EDD1A4
:10491000EAE76FF00204ECE740420F00602200205B
:1049200008B5FDF7ABFC4FF0FF3E6FF0004C0F4AAF
:10493000821841F1000396457CEB03013CBF7246AF
:1049400063460B4802F008FD70B14FF0FF300021C4
:1049500000F0D4FC002001F011FB0028F5D1BDE8E7
:104960000840034802F0E8BC08BD00BF40420F0009
:10497000602200202DE9F84380460F46FDF77EFCBB
:104980004FF0FF356FF00044334A821841F10003C5
:10499000954274EB03013CBF2A4623462F4802F0A0
:1049A000DBFC08B9BDE8F883002001F07FFA00289D
:1049B00047D0002F40DD0025DFF8A890284E13E0F7
:1049C0002246002001F020FB002104464FF0FF307A
:1049D00000F094FC002001F0D1FAFDF74FFCC9E98A
:1049E00000012544AF4227DD002001F02DFB7C1B98
:1049F0008442A8BF044608EB0501002CE0D1214603
:104A00004FF0FF3000F07AFC204601F0B7FA204664
:104A100001F04CFA80B1204601F016FB0028E1D1EC
:104A2000FDF72CFCD9F80030D9F804209B1942F18D
:104A3000000283428A41D5D20848BDE8F84302F01B
:104A40007BBC00200021074BC3E90001BDE8F8430F
:104A5000024802F071BC00BF40420F0060220020FB
:104A600020A10700D014002030B5002185B02E48C9
:104A700002F076FCF0B92D4B1A68CAB1EFF3108141
:104A800072B6D2E8CF5F0124002DFAD1C2E8454FBB
:104A9000002DF6D1BFF35F8F254C1D682278596039
:104AA000D3B201222270C5E88F0F81F31088CBB1F9
:104AB00005B030BD00214FF0FF3000F01FFC00209A
:104AC00001F00AFA0446184802F036FC002CEFD038
:104AD000184B1B68002BEBD0174A106805B0BDE8D7
:104AE00030401847FDF754F90446FDF7C7FB4FF077
:104AF000FF3C6FF0004510F57A7241F100039445D8
:104B000075EB030138BF2B464FF000014FF0010554
:104B100020460A4C38BF6246CDE901150094FDF7E6
:104B20003BF905B030BD00BF60220020EC21002021
:104B300084220020501D0020541D00201D4800101C
:104B40004FF0504330B585B01C68FDF721F9FDF7F3
:104B500035FAA04202D0002005B030BD00212A4B1A
:104B600008461B7801F038FD28480368002B47D021
:104B70000120FCF791FE0346254C2649C0B2237064
:104B8000FCF708FD20780121FCF7C2FC0E20FCF7A1
:104B9000F1FC40BB204B0125C3E90000FDF7F8F80C
:104BA0000446FDF76BFB4FF0FF3E6FF0004C10F535
:104BB0007A7241F1000396457CEB03014FF000014E
:104BC0002046164C3CBF72466346CDE90115009461
:104BD000FDF7E2F80028BEDB01211148FFF776FC63
:104BE000012005B030BD0120FCF74EFC01460A480B
:104BF000FCF7AEFE00220E200A49FCF7FBFCEBE7B7
:104C0000FCF78AFEB4E700BFAC79001060220020F8
:104C100083220020694A0010EC2100201D4800106A
:104C2000041300208D4800100048704730790010B0
:104C300000487047DC78001038B5184B04461A78E5
:104C40000AB344B940F209424FF44173144D6A80EB
:104C500013482B8038BD052C1DD8124B104D53F82E
:104C6000241028460023013903E0132B20F8022FDB
:104C70000ED011F8012F0133DBB2002AF5D15B0011
:104C800043F44073E4E71121184600F025F8D8E713
:104C90004FF44A73DCE7002038BD00BF68220020D3
:104CA000881D0020C478001000B545F247308BB055
:104CB000FDF7C6FC01220346092101A89847DDE95A
:104CC0000332044912BA1BBAC1E900230BB05DF8E4
:104CD00004FB00BF54220020012901F1FF3300F042
:104CE000B3805D490A784FEA121C9F2A8CBF0CF1F1
:104CF000370C0CF1300C012B80F800C000F0A780BD
:104D000002F00F02092A8CBF37323032022B427078
:104D100000F09D804A784FEA121C9F2A8CBF0CF14C
:104D2000370C0CF1300C032B80F802C000F08F80A0
:104D300002F00F02092A8CBF37323032042BC270C6
:104D400000F085808A784FEA121C9F2A8CBF0CF1F4
:104D5000370C0CF1300C052B80F804C077D002F032
:104D60000F02092A8CBF37323032062B42716ED0C7
:104D7000CA784FEA121C9F2A8CBF0CF1370C0CF139
:104D8000300C072B80F806C061D002F00F02092A10
:104D90008CBF37323032082BC27158D00A794FEAB3
:104DA000121C9F2A8CBF0CF1370C0CF1300C092B14
:104DB00080F808C04BD002F00F02092A8CBF3732AE
:104DC00030320A2B427242D04A794FEA121C9F2A93
:104DD0008CBF0CF1370C0CF1300C0B2B80F80AC097
:104DE00035D002F00F02092A8CBF373230320C2B3B
:104DF000C2722CD08A794FEA121C9F2A8CBF0CF108
:104E0000370C0CF1300C0D2B80F80CC01FD002F0C9
:104E10000F02092A8CBF373230320E2B427316D064
:104E2000CA7911099F2A8CBF373130310F2B81731A
:104E30000DD002F00F02092A94BF30323732102B06
:104E4000C27318BF103002D000230370704718449B
:104E500000230370704700BF5422002070B500F09B
:104E60002DF90C234026194CFF22A3670E20184968
:104E7000FCF7C0FB32460021164802F053F9012529
:104E8000002380211348144A418445700683068715
:104E900082604360136042F8043C80F8213080F85F
:104EA0003B3043620D4B4FF00056C360C362803B02
:104EB000836202F049FA4FF480320949094B2564B4
:104EC0002846E664C4F89010DA6470BD0000115002
:104ED0009D030020BC1D00208400105000011050D4
:104EE00010D001000020115001210E20FCF710BB52
:104EF00000220248114600F001B900BFDC1D00206D
:104F0000044B197021B14FF40032034BC3F89020C9
:104F1000704700BF7F220020002011500B785B06F5
:104F200002D14B78052B00D070474B88014ADBB289
:104F30001360704700001150CB782DE9F04103F069
:104F4000030EBEF1010FC3F301005BD0002791F8FF
:104F500002C0344C0CF07F025600898806EBDC134B
:104F600004EB43134FEADC15D876C1F30A0185F050
:104F7000010083F802C019835870DF70D3008DBB25
:104F80002948043304EB821C03EB0008CCF80880AA
:104F90001F5082B3254BD2001344CCF80430244B6D
:104FA0003F311A6821F03F01BEF1020F08BF4900EE
:104FB000114419601F4B771904EB47179942FA60A7
:104FC0002BD82E4404EB4613D97E82F0A04282F403
:104FD00080125B6842EA816242F000421A6001205E
:104FE000BDE8F081104804EB821C0344CCF8283063
:104FF00040F832704AB900220F4904EB4513D960DA
:105000005A60ECE70020BDE8F081D20002F1A04236
:1050100002F58012CCF82420C1E7FDF75DFBFA68A9
:10502000CFE700BFBC1D00208000105004001050CE
:10503000D0210020FF0F10500001105002F084B961
:105040008C4608B5114607481A460CF07F034FEA14
:10505000DC1C0CEB430C00EB4C1000F04FF8012073
:1050600008BD00BFBC1D002011F07F0205D1002942
:105070000CBF02200120064B9866C909054B01EBC5
:10508000420003EB40104FF40062002102F060B9CF
:1050900000201150BC1D002011F07F0300D170478B
:1050A000002205485B0003EBD11300EB43106FF4C3
:1050B0000061C27002F04CB9BC1D00204FF080525C
:1050C00009480A4908B50A4B02600A609968C94351
:1050D00011F08051FAD14FF48052064802F022F8C4
:1050E0000922054B5A6708BD0020024000300240EB
:1050F00000000240000010500000115000234FF04B
:10510000010C10B580F81AC08282C3820161044686
:1051100002F0FEF820B14FF40032074BC3F89020A4
:10512000204602F0F9F810B10123237710BD204684
:10513000BDE8104002F0F8B8002011502DE9F04110
:1051400000241D4E054623463278DFF878801B4F39
:105150000DE03B6813EB441324D0DB6828469847E6
:1051600032780134E4B2511CA142234606DBA2424C
:10517000A3EB0203EDD808EB4313EEE75422002122
:105180000F4801F0CFFF4FF0FF330D482022041DE0
:105190004360C4E90133E360FF21BDE8F04114300E
:1051A00001F0C0BF4FF0E023D3F8F03DDB0700D59E
:1051B00000BEBDE8F08100BF7E22002098170020CD
:1051C0006819002044790010704700BF704700BF85
:1051D0000020704700207047704700BF704700BF35
:1051E000704700BF704700BF024B5878003818BFA7
:1051F0000120704768190020024B1878C0F3800026
:10520000704700BF681900202DE9F047DFF8E4A0DF
:105210009AF80030FF2B56D10E4600293ED00021CF
:1052200054220746294801F07DFF0022284C294BD3
:1052300020461A70FCF770FB274B28481C60284C4E
:10524000FCF778FB204601F0ABFD264A264B1460A4
:1052500023B12648FFF7C4FA254B18600024234DDC
:1052600023462A78DFF89090DFF884800EE0D8F8A3
:10527000003013EB441311D05B687BB198472A7858
:105280000134E4B2511CA142234611DBA242EED804
:105290009B1A09EB43135B68002BEFD14FF0E0231F
:1052A000D3F8F03DDB0700D500BE0020BDE8F08755
:1052B000314638468AF80070FFF7D0FD0028EDD05F
:1052C0003846FFF711FE0120BDE8F087681900207D
:1052D0006019002080220020BC190020301300201B
:1052E0001C130020C0190020E14700107E2200207E
:1052F0009817002038130020447900102DE9F04F52
:10530000DFF8C8928BB099F80030FF2B00F0F180E5
:10531000A84CA94DDFF8B0A2DFF8B4B226687369D3
:10532000EFF3108272B6D3E8CF0F01210028FAD133
:10533000C3E8401F0028F6D1BFF35F8FB26130464B
:1053400007A901F077FB00237269C2E88F3FB369B8
:1053500083F31088002800F0CC809DF81D30013BBD
:10536000072B00F27D83DFE803F0A7B1959D8E3512
:105370000A04089B002BD1D009989847CEE79DF8E6
:10538000201001F07F0605EB460000EBD11090F8ED
:10539000343023F0010380F8343090F8343023F0B7
:1053A000040380F83430002E00F0A680037D9AF8C4
:1053B0000020934280F09380804A126812EB4313DE
:1053C00000F090809E699DF82120099B9DF81C00AB
:1053D000B047A3E79BF80030002B00F083809BF8D8
:1053E0000030013BDBB28BF800309BF8003003F05B
:1053F000FF00002B92D1704F9DF81C803B7843F04A
:1054000001033B7097F8343060F3000387F83430C1
:1054100097F8343060F3820387F8343097F83530EA
:1054200060F3000387F8353097F8353060F3820376
:1054300087F8353000F06CFC9DF8203003F06002F6
:10544000602A6CD0402A7CD003F01F03012B00F0AF
:10545000C180022B00F08180002B60D1202A00F057
:10546000E981002A5BD19DF82130092B57D8DFE86C
:1054700013F0B001A2015600C101560095016B0165
:1054800056006001F4002B78D9077FF547AFFFF78E
:10549000A9FE43E7EB78DA077FF540AF0898FFF7FE
:1054A00095FE3BE72B78D8077FF538AF2878C0F317
:1054B000C000FFF795FE31E79DF81C00FFF73EFEA8
:1054C00000F01CFC9DF82030AB7027E79DF81C0015
:1054D000FFF734FE00F012FCFFF780FE1EE7501CC1
:1054E000984211DA4FF0E023D3F8F03DDC0700D505
:1054F00000BE0BB0BDE8F08F099B9DF821209DF800
:105500001C0000F019FC09E79B1A2D4A02EB43131B
:1055100058E7FFF78DFB0246002840F082814FF0EC
:10552000E023D3F8F03DDE0700D500BE9DF81C0057
:105530000021FFF799FD80219DF81C00FFF794FDE5
:10554000ECE6204800F0E4FB0121404608AAFFF702
:1055500033F900287FF4E2AEE8E79DF8241011F05B
:10556000700FDCD101F07F0607EB4600164B00EB15
:10557000D1101B78007D7600019698424FEAD11633
:10558000009659D35E1C8642C0F26681C01A0C4B4D
:1055900003EB4016002A00F06381706900F0B8FB4D
:1055A00001214046736908AA984700287FF4B6AEE7
:1055B000BCE700BFC0190020681900209817002020
:1055C00044790010B94700107E22002038130020D3
:1055D000802200209DF824300F2BA7D8AE4A3B44F0
:1055E0001B791278934232D3511C99429EDBAB4E09
:1055F0009B1A06EB4316706900F08AFB01214046B6
:10560000736908AA984700287FF488AE9DF8203077
:1056100013F060068AD19DF821300A3B012B85D812
:1056200000F076FB9DF821300A2B00F0F281404615
:1056300008A900F0F1FA71E6994B1B6803EB4016DC
:10564000002A00F00D81002E3FF470AFA5E7944AC8
:10565000166816EB4316CED168E77B789DF822607A
:105660009E4200F04F817B78002B40F0BE817E701F
:10567000002E00F04581701EC0B2FFF7D9FA034634
:10568000002800F05F814278022A40F05B81C179F6
:1056900003F10906C1F340121201C1F3801142EA7D
:1056A00041123146387820F0300002433A705A886F
:1056B000CDF80C809A180192019B8B4240F2A48194
:1056C0004A780B2A00F0AF810123042A40F03A8186
:1056D0000026019A0096521A92B202926E4A0493E0
:1056E00012781DE06E4B1B6813EB461800F02A8100
:1056F000029AD8F810300398059198470828024676
:10570000059906F1010303D90298904280F0FF80C9
:10571000DEB2614B00961A78531C9E4200F3128150
:10572000009BB242A3EB0202DCD85C4B03EB4218B5
:10573000DEE77B7840468DF81A300DF11A0201231E
:1057400008A900F083FAE9E5BDF82200030A013B4D
:10575000020AC0B20E2B3FF6E9AE01A151F823F0C8
:105760007559001011580010B15900102D55001036
:105770002D55001093590010115800102D55001090
:105780002D5500102D5500102D5500102D550010D1
:105790002D5500102D5500106759001008A800F075
:1057A000BDFA40469DF82210FFF7A2FB3B7843F07C
:1057B00002033B70B2E5BDF82230012B7FF4B6AE98
:1057C0003B78404623F0080308A93B7000F024FA18
:1057D000A4E540463B789A0802F00202C3F3401366
:1057E0001343ADF81A300DF11A02022308A900F094
:1057F0002DFA93E5BDF82230012B7FF497AE3B786C
:10580000404643F0080308A93B7000F005FA85E51F
:10581000022A3FF47EAEFFF7DDFC024600283FF48B
:1058200085AE4046538808A900F010FA00287FF49E
:1058300075AD7BE69DF824300F2B3FF677AE164A08
:105840003B441B79127893421DD2154A166816EB19
:1058500043167FF4A2AE69E6002A7FF467AE002605
:105860009DF8212002F0FD03012B1BD0002A7FF4BC
:1058700056AE019B009A3B44134493F834304046A3
:10588000C3F34003ADE7511C9942FFF64FAE034E00
:105890009B1A06EB431680E67E2200204479001016
:1058A00098170020BDF82230B3B9012A99F80000FA
:1058B00000F08680FFF7D8FB019B009A3B4413441D
:1058C00093F8342042F0020283F8342093F8342015
:1058D00042F0010283F83420002E3FF41FAD7069BE
:1058E00000F016FA7369012108AA40469847002083
:1058F00000F00EFA97F83530DF073FF50FAD96E66A
:10590000FFF76CFC404608A900F086F906E5049B09
:10591000012B00F09E80002B00F08A80002091F87F
:10592000028005E08CF804605FFA80FC63457FD953
:1059300008EB000C57FA8CFC9CF804E00130BEF137
:10594000FF0FEFD04FF0E023D3F8F03DDA0700D59A
:1059500000BE4FF0E023D3F8F03DDB0700D500BEDA
:1059600000237B70E2E5FEF723FF024600287FF468
:1059700058AFDBE5FFF758F9024600283FF4CFADFA
:105980004046122308A900F061F900287FF4C6AC54
:10599000CCE5FFF71DFC024600283FF4C7AD4046AA
:1059A000137808A900F052F900287FF4B7ACBDE5E0
:1059B000BDF82410FFF740F902460028EFD1B5E505
:1059C0000293FFF769FB019A009B3A441A4492F84C
:1059D0003410029B63F3410182F8341092F83410C2
:1059E00063F3000182F8341076E700214046FFF7A8
:1059F00087FA4046FFF722FBBB7840460093FFF74B
:105A00009DFB009BBB7032E6DDF80C80FFF7E4FBEA
:105A100078E74046012308A90DF11A028DF81A60B3
:105A200000F014F97AE40A78CB7811444A784CE60D
:105A3000334610480492029100F076FE0E4B049A11
:105A400002991B781144009A01339342BFF634AE99
:105A500078E7D8F810C00948844508BF02235DE7FD
:105A60004FF0E023D3F8F03DDB077FF557AC00BEE5
:105A700054E400BF7C1900207E2200204961001000
:105A80002DE9F84F0A9F002A40D00C461E461546C5
:105A90004FF0000ADFF87C90DFF87C8018E02046A9
:105AA00098F8021099F800B000F00EFEE0B121461F
:105AB0005846FFF741FAF0B1A2780AF1010AD1097C
:105AC00016BF0B9B3A701A702278AA4514441DD059
:105AD0006278052A0FD1E17801F00301B1420AD1C1
